S00F0000575332383132422E737265635C
S11300000C9434000C9446000C9446000C94460066
S11300100C9446000C9446000C9446000C94460044
S11300200C9446000C9446000C9446000C94460034
S11300300C9446000C9446000C9446000C94460024
S11300400C9446000C9446000C9446000C94460014
S11300500C9446000C9446000C9446000C94460004
S11300600C9446000C94460011241FBECFEFD8E038
S1130070DEBFCDBF21E0A0E0B1E001C01D92A837F2
S1130080B207E1F70E94AF010C9470050C940000D4
S11300902F923F924F925F926F927F928F929F9294
S11300A0AF92BF92CF92DF92EF92FF920F931F9382
S11300B0CF93DF93CDB7DEB762970FB6F894DEBF68
S11300C00FBECDBFE982FA820B831C832D833E834E
S11300D04F83588769877A878B879C87CD80DE809A
S11300E0EF80F88420E030E0A901C701B6010E9446
S11300F0580381110DC069847A845B844C84862CF6
S1130100972C5D864E86362C272CA52CB42CE5C066
S113011089809A80AB80BC8020E030E044EB53E4DB
S1130120C501B4010E945803811105C019821A82C5
S11301301B821C820CC020E030E040E752E4C50181
S1130140B4010E945D0369837A838B839C838980D5
S11301509A80AB80BC80C501B4010E9424050E9432
S1130160CF038B01072E000C880B990B0E94070408
S11301709B01AC01C501B4010E94EB026F87788B2F
S1130180898B9A8B39842A84AB84BC84A701960119
S113019060E070E080E89FE30E94EB029B01AC0109
S11301A0632D722D8A2D9B2D0E94B704862E972EC7
S11301B08D879E872F85388949895A89C701B60159
S11301C00E94B7049B01AC0160E070E080E89FE30B
S11301D00E94EB029B01AC01632D722D8A2D9B2D95
S11301E00E94B704662E772E582E492E2F85388903
S11301F049895A8960E070E080E89FE30E94EB023D
S11302009B01AC01C701B6010E94B7049B01AC017C
S113021060E070E080E89FE30E94EB029B01AC0188
S1130220632D722D8A2D9B2D0E94B7040230110577
S1130230C9F044F40115110561F00130110509F408
S11302404CC03BC003301105B1F00430110521F15D
S113025034C0632C722C5A2C4B2C362E272EA82EED
S1130260B92E3BC0682C792C5D844E84862E972E43
S11302708D879E8732C0362D272D952D842D682C91
S1130280792C5D844E84832C922CAD86BE86332ECD
S1130290222EA92EB82E21C0532D422D3A2D2B2DBE
S11302A0382C292CAD84BE84852E942E3D872E8730
S11302B0662E772E582E492E10C0362D272D952DBB
S11302C0842D632C722C5A2C4B2C382C292CAD8465
S11302D0BE84832E922E9D878E8720E030E04FE7E8
S11302E053E4662D772D852D942D0E94B7040E942A
S11302F0D603162F20E030E04FE753E4632D722D30
S11303008A2D9B2D0E94B7040E94D603062F20E05D
S113031030E04FE753E4682D792D8D859E850E944A
S1130320B7040E94D603862F612F702F62960FB6F2
S1130330F894DEBF0FBECDBFDF91CF911F910F9117
S1130340FF90EF90DF90CF90BF90AF909F908F90F1
S11303507F906F905F904F903F902F900895CF9330
S1130360DF93CDB7DEB72C970FB6F894DEBF0FBE80
S1130370CDBFC12CD12C42C0B601660F771F660FCA
S1130380771F660F771F6C0D7D1D072E000C880BE1
S1130390990B0E940704E62E462F572F682F792FBA
S11303A049835A836B837C8380E090E0A0E8BFE3B9
S11303B08D839E83AF83B8878AE097EDA3EABCE37D
S11303C089879A87AB87BC87FA800B811C8120E0E0
S11303D03E814F8158856AE07A858B859C850E9491
S11303E04800F601EE0FFF1FEC0DFD1DE050FF4F1E
S11303F06183708382832FEFC21AD20A88E2C816FF
S1130400D1040CF4B9CF68E270E080E091E00E947E
S1130410BA029FEF27EA81E6915020408040E1F73D
S113042000C0000080E090E00CC0FC01EE0FFF1F54
S1130430E80FF91FE050FF4F21E02183208322833E
S11304400196883291058CF368E270E080E091E0D7
S11304500E94BA029FEF29E688E191502040804033
S1130460E1F700C00000E0E0F1E0118210821282A6
S113047081E0848313821582178286831086128614
S11304801186838710E005C080E091E00E9492020B
S11304901F5F1832C8F39FEF29E688E1915020408E
S11304A08040E1F700C0000010E005C086E091E064
S11304B00E9492021F5F1832C8F39FEF29E688E179
S11304C0915020408040E1F700C00000FF24F394E5
S11304D000E010E005C083E091E00E9492021F5FFB
S11304E01017C8F39FEF29E688E19150204080401F
S11304F0E1F700C0000010E005C089E091E00E942F
S113050092021F5F212F30E088E290E0801B910966
S11305102817390794F30F0D083211F00111D9CFC0
S1130520F194D7CFFC0187B1816087B978B17E7F20
S113053068B16160AFB7F89423E030E015C0AF0153
S11305404F5F5F4F208138E068B9000007F427FF50
S113055078B9220F000007F407F407F478B907F418
S11305603A9591F79C01FA01C9010197232B39F7B8
S1130570AFBF0895FC019B01220F331F620F731F4D
S113058087B1816087B9A8B1AE7F58B15160BFB758
S1130590F89415C09F012F5F3F4F408168E058B920
S11305A0000007F447FFA8B9440F000007F407F45C
S11305B007F4A8B907F46A9591F7BC01F901CB01D6
S11305C00197672B39F7BFBF87EC90E00197F1F7EC
S11305D000C0000008955058BB27AA270E940303B7
S11305E00C947D040E946F0438F00E94760420F07D
S11305F039F49F3F19F426F40C946C040EF4E0953E
S1130600E7FB0C946604E92F0E948E0458F3BA1792
S1130610620773078407950720F079F4A6F50C9414
S1130620B0040EF4E0950B2EBA2FA02D0B01B901E6
S113063090010C01CA01A0011124FF27591B99F054
S1130640593F50F4503E68F11A16F040A22F232F60
S1130650342F4427585FF3CF469537952795A795B0
S1130660F0405395C9F77EF41F16BA0B620B730B57
S1130670840BBAF09150A1F0FF0FBB1F661F771FC8
S1130680881FC2F70EC0BA0F621F731F841F48F47D
S1130690879577956795B795F7959E3F08F0B0CF06
S11306A09395880F08F09927EE0F979587950895ED
S11306B00E94420408F481E008950E9471030C949E
S11306C07D040E94760458F00E946F0440F029F4DF
S11306D05F3F29F00C94660451110C94B1040C94FE
S11306E06C040E948E0468F39923B1F3552391F3AB
S11306F0951B550BBB27AA2762177307840738F08D
S11307009F5F5F4F220F331F441FAA1FA9F335D0E9
S11307100E2E3AF0E0E832D091505040E695001C9D
S1130720CAF72BD0FE2F29D0660F771F881FBB1F57
S1130730261737074807AB07B0E809F0BB0B802D35
S1130740BF01FF2793585F4F3AF09E3F510578F061
S11307500C9466040C94B1045F3FE4F3983ED4F324
S1130760869577956795B795F7959F5FC9F7880F35
S1130770911D9695879597F90895E1E0660F771F87
S1130780881FBB1F621773078407BA0720F0621B18
S1130790730B840BBA0BEE1F88F7E09508950E9443
S11307A0D6036894B1110C94B10408950E94960480
S11307B088F09F5798F0B92F9927B751B0F0E1F01E
S11307C0660F771F881F991F1AF0BA95C9F714C0CE
S11307D0B13091F00E94B004B1E008950C94B004DB
S11307E0672F782F8827B85F39F0B93FCCF3869507
S11307F077956795B395D9F73EF490958095709564
S113080061957F4F8F4F9F4F0895E89409C097FBE0
S11308103EF490958095709561957F4F8F4F9F4FD3
S11308209923A9F0F92F96E9BB279395F695879517
S113083077956795B795F111F8CFFAF4BB0F11F4DA
S113084060FF1BC06F5F7F4F8F4F9F4F16C0882381
S113085011F096E911C0772321F09EE8872F762FB7
S113086005C0662371F096E8862F70E060E02AF0F8
S11308709A95660F771F881FDAF7880F96958795E4
S113088097F90895990F0008550FAA0BE0E8FEEFB9
S113089016161706E807F907C0F012161306E40740
S11308A0F50798F0621B730B840B950B39F40A2639
S11308B061F0232B242B252B21F408950A2609F417
S11308C0A140A6958FEF811D811D089597F99F671B
S11308D080E870E060E008959FEF80EC08950024C4
S11308E00A941616170618060906089500240A9491
S11308F012161306140605060895092E0394000C17
S113090011F4882352F0BB0F40F4BF2B11F460FFA5
S113091004C06F5F7F4F8F4F9F4F089557FD9058CE
S1130920440F551F59F05F3F71F04795880F97FBAF
S1130930991F61F09F3F79F0879508951216130669
S11309401406551FF2CF4695F1DF08C01616170698
S11309501806991FF1CF86957105610508940895CD
S1130960E894BB2766277727CB0197F908950E945F
S1130970CA040C947D040E946F0438F00E9476042B
S113098020F0952311F00C9466040C946C0411244B
S11309900C94B1040E948E0470F3959FC1F3950FDB
S11309A050E0551F629FF001729FBB27F00DB11DEF
S11309B0639FAA27F00DB11DAA1F649F6627B00D7F
S11309C0A11D661F829F2227B00DA11D621F739F68
S11309D0B00DA11D621F839FA00D611D221F749F76
S11309E03327A00D611D231F849F600D211D822FBD
S11309F0762F6A2F11249F5750409AF0F1F08823E4
S1130A004AF0EE0FFF1FBB1F661F771F881F915010
S1130A105040A9F79E3F510580F00C9466040C9455
S1130A20B1045F3FE4F3983ED4F3869577956795D8
S1130A30B795F795E7959F5FC1F7FE2B880F911D3A
S1130A409695879597F908950E94580530F09F3739
S1130A5010F40C94B1040C942F050C944A058823CB
S1130A6071F4772321F09850872B762F07C06623E3
S1130A7011F499270DC09051862B70E060E02AF0A4
S1130A809A95660F771F881FDAF7880F96958795D2
S1130A9097F908959F3F31F0915020F48795779509
S1130AA06795B795880F911D9695879597F9089541
S1130AB00E949604A0F0BEE7B91788F4BB279F38BC
S1130AC060F41616B11D672F782F8827985FF7CF2B
S1130AD0869577956795B11D93959639C8F30895D2
S1070AE0F894FFCFB4
S9030000FC
