S00F0000575332383132422E737265635C
S11300000C9434000C9446000C9446000C94460066
S11300100C9446000C9446000C9446000C94460044
S11300200C9446000C9446000C9446000C94460034
S11300300C9446000C9446000C9446000C94460024
S11300400C9446000C9446000C9446000C94460014
S11300500C9446000C9446000C9446000C94460004
S11300600C9446000C94460011241FBECFEFD8E038
S1130070DEBFCDBF24E0A0E0B1E001C01D92A438F2
S1130080B207E1F70E94AF010C943A050C9400000A
S11300902F923F924F925F926F927F928F929F9294
S11300A0AF92BF92CF92DF92EF92FF920F931F9382
S11300B0CF93DF93CDB7DEB762970FB6F894DEBF68
S11300C00FBECDBFE982FA820B831C832D833E834E
S11300D04F83588769877A878B879C87CD80DE809A
S11300E0EF80F88420E030E0A901C701B6010E9446
S11300F0220381110DC069847A845B844C84862C2C
S1130100972C5D864E86362C272CA52CB42CE5C066
S113011089809A80AB80BC8020E030E044EB53E4DB
S1130120C501B4010E942203811105C019821A82FB
S11301301B821C820CC020E030E040E752E4C50181
S1130140B4010E94270369837A838B839C8389800B
S11301509A80AB80BC80C501B4010E94EE040E9469
S113016099038B01072E000C880B990B0E94D10375
S11301709B01AC01C501B4010E94B5026F87788B65
S1130180898B9A8B39842A84AB84BC84A701960119
S113019060E070E080E89FE30E94B5029B01AC013F
S11301A0632D722D8A2D9B2D0E948104862E972EFD
S11301B08D879E872F85388949895A89C701B60159
S11301C00E9481049B01AC0160E070E080E89FE341
S11301D00E94B5029B01AC01632D722D8A2D9B2DCB
S11301E00E948104662E772E582E492E2F85388939
S11301F049895A8960E070E080E89FE30E94B50273
S11302009B01AC01C701B6010E9481049B01AC01B2
S113021060E070E080E89FE30E94B5029B01AC01BE
S1130220632D722D8A2D9B2D0E94810402301105AD
S1130230C9F044F40115110561F00130110509F408
S11302404CC03BC003301105B1F00430110521F15D
S113025034C0632C722C5A2C4B2C362E272EA82EED
S1130260B92E3BC0682C792C5D844E84862E972E43
S11302708D879E8732C0362D272D952D842D682C91
S1130280792C5D844E84832C922CAD86BE86332ECD
S1130290222EA92EB82E21C0532D422D3A2D2B2DBE
S11302A0382C292CAD84BE84852E942E3D872E8730
S11302B0662E772E582E492E10C0362D272D952DBB
S11302C0842D632C722C5A2C4B2C382C292CAD8465
S11302D0BE84832E922E9D878E8720E030E04FE7E8
S11302E053E4662D772D852D942D0E9481040E9460
S11302F0A003162F20E030E04FE753E4632D722D66
S11303008A2D9B2D0E9481040E94A003062F20E0C9
S113031030E04FE753E4682D792D8D859E850E944A
S113032081040E94A003862F612F702F62960FB65E
S1130330F894DEBF0FBECDBFDF91CF911F910F9117
S1130340FF90EF90DF90CF90BF90AF909F908F90F1
S11303507F906F905F904F903F902F900895CF9330
S1130360DF93CDB7DEB72C970FB6F894DEBF0FBE80
S1130370CDBF80E090E00CC0FC01EE0FFF1FE80F42
S1130380F91FE050FF4F21E021832083228301964F
S11303908C3221E0920780F36CE271E080E091E01E
S11303A00E9484028FEF93ED20E38150904020401F
S11303B0E1F700C00000C12CD12C3AC0B6010D2CCD
S11303C0000C880B990B0E94D103E62E462F572F61
S11303D0682F792F49835A836B837C8380E090E074
S11303E0A0E8BFE38D839E83AF83B8878DEC9CEC3C
S11303F0ACECBDE389879A87AB87BC87FA800B8115
S11304001C8120E03E814F8158856DEC7A858B8577
S11304109C850E944800F601EE0FFF1FEC0DFD1DA8
S1130420E050FF4F6183708382838FEFC81AD80A2C
S11304309CE2C91691E0D9060CF2D12C6D2D70E026
S113044080E090E00E94D103E62E462F572F682FBC
S1130450792F49835A836B837C8380E090E0A0E802
S1130460BFE38D839E83AF83B8878DEC9CECACECAB
S1130470BDE389879A87AB87BC87FA800B811C818F
S113048020E03E814F8158856DEC7A858B859C8573
S11304900E94480020E030E01CC0A9014F5F5F4F7C
S11304A0DA01AA0FBB1FA40FB51FA050BF4F1196AE
S11304B09C911197F901EE0FFF1F2E0F3F1FF901B9
S11304C0E050FF4F91839C91908312969C9192836C
S11304D09A012B3291E0390700F360938204709300
S11304E08104809383046CE271E080E091E00E94D7
S11304F08402D3942FEF80E792E021508040904013
S1130500E1F700C000009ACFFC019B01220F331FCA
S1130510620F731F87B1816087B9A8B1AE7F58B1EC
S11305205160BFB7F89415C09F012F5F3F4F4081C2
S113053068E058B9000007F447FFA8B9440F000069
S113054007F407F407F4A8B907F46A9591F7BC0116
S1130550F901CB010197672B39F7BFBF87EC90E016
S11305600197F1F700C0000008955058BB27AA274F
S11305700E94CD020C9447040E94390438F00E9472
S1130580400420F039F49F3F19F426F40C94360407
S11305900EF4E095E7FB0C943004E92F0E94580414
S11305A058F3BA17620773078407950720F079F4A4
S11305B0A6F50C947A040EF4E0950B2EBA2FA02D18
S11305C00B01B90190010C01CA01A0011124FF27FC
S11305D0591B99F0593F50F4503E68F11A16F040F7
S11305E0A22F232F342F4427585FF3CF46953795F6
S11305F02795A795F0405395C9F77EF41F16BA0BBB
S1130600620B730B840BBAF09150A1F0FF0FBB1F68
S1130610661F771F881FC2F70EC0BA0F621F731FB1
S1130620841F48F4879577956795B795F7959E3F0E
S113063008F0B0CF9395880F08F09927EE0F97959F
S1130640879508950E940C0408F481E008950E949F
S11306503B030C9447040E94400458F00E94390460
S113066040F029F45F3F29F00C94300451110C94AC
S11306707B040C9436040E94580468F39923B1F364
S1130680552391F3951B550BBB27AA2762177307B4
S1130690840738F09F5F5F4F220F331F441FAA1F48
S11306A0A9F335D00E2E3AF0E0E832D09150504004
S11306B0E695001CCAF72BD0FE2F29D0660F771FB2
S11306C0881FBB1F261737074807AB07B0E809F098
S11306D0BB0B802DBF01FF2793585F4F3AF09E3F1D
S11306E0510578F00C9430040C947B045F3FE4F3E0
S11306F0983ED4F3869577956795B795F7959F5F60
S1130700C9F7880F911D9695879597F90895E1E0AB
S1130710660F771F881FBB1F621773078407BA070A
S113072020F0621B730B840BBA0BEE1F88F7E09565
S113073008950E94A0036894B1110C947B04089559
S11307400E94600488F09F5798F0B92F9927B751F9
S1130750B0F0E1F0660F771F881F991F1AF0BA9561
S1130760C9F714C0B13091F00E947A04B1E0089541
S11307700C947A04672F782F8827B85F39F0B93F33
S1130780CCF3869577956795B395D9F73EF4909514
S11307908095709561957F4F8F4F9F4F0895E89492
S11307A009C097FB3EF490958095709561957F4FB5
S11307B08F4F9F4F9923A9F0F92F96E9BB27939563
S11307C0F695879577956795B795F111F8CFFAF473
S11307D0BB0F11F460FF1BC06F5F7F4F8F4F9F4FA4
S11307E016C0882311F096E911C0772321F09EE802
S11307F0872F762F05C0662371F096E8862F70E068
S113080060E02AF09A95660F771F881FDAF7880F41
S11308109695879597F90895990F0008550FAA0B97
S1130820E0E8FEEF16161706E807F907C0F01216FF
S11308301306E407F50798F0621B730B840B950B02
S113084039F40A2661F0232B242B252B21F4089557
S11308500A2609F4A140A6958FEF811D811D0895F4
S113086097F99F6780E870E060E008959FEF80EC5F
S1130870089500240A941616170618060906089502
S113088000240A9412161306140605060895092E68
S11308900394000C11F4882352F0BB0F40F4BF2BD7
S11308A011F460FF04C06F5F7F4F8F4F9F4F089517
S11308B057FD9058440F551F59F05F3F71F047950D
S11308C0880F97FB991F61F09F3F79F087950895F2
S11308D0121613061406551FF2CF4695F1DF08C011
S11308E0161617061806991FF1CF8695710561052E
S11308F008940895E894BB2766277727CB0197F9D6
S113090008950E9494040C9447040E94390438F01A
S11309100E94400420F0952311F00C9430040C94B0
S1130920360411240C947B040E94580470F3959FA0
S1130930C1F3950F50E0551F629FF001729FBB27D2
S1130940F00DB11D639FAA27F00DB11DAA1F649F6E
S11309506627B00DA11D661F829F2227B00DA11D21
S1130960621F739FB00DA11D621F839FA00D611DA7
S1130970221F749F3327A00D611D231F849F600DC8
S1130980211D822F762F6A2F11249F5750409AF0F1
S1130990F1F088234AF0EE0FFF1FBB1F661F771F7D
S11309A0881F91505040A9F79E3F510580F00C9448
S11309B030040C947B045F3FE4F3983ED4F38695B3
S11309C077956795B795F795E7959F5FC1F7FE2BE8
S11309D0880F911D9695879597F908950E94220591
S11309E030F09F3710F40C947B040C94F9040C94AD
S11309F01405882371F4772321F09850872B762FE0
S1130A0007C0662311F499270DC09051862B70E01E
S1130A1060E02AF09A95660F771F881FDAF7880F2F
S1130A209695879597F908959F3F31F0915020F45A
S1130A30879577956795B795880F911D96958795B6
S1130A4097F908950E946004A0F0BEE7B91788F4EE
S1130A50BB279F3860F41616B11D672F782F88279F
S1130A60985FF7CF869577956795B11D93959639DD
S10B0A70C8F30895F894FFCFC8
S9030000FC
