S00F0000575332383132422E737265635C
S11300000C9434000C9446000C9446000C94460066
S11300100C9446000C9446000C9446000C94460044
S11300200C9446000C9446000C9446000C94460034
S11300300C9446000C9446000C9446000C94460024
S11300400C9446000C9446000C9446000C94460014
S11300500C9446000C9446000C9446000C94460004
S11300600C9446000C94460011241FBECFEFD8E038
S1130070DEBFCDBF21E0A0E0B1E001C01D92A837F2
S1130080B207E1F70E9448000C9420010C94000090
S113009080E090E00CC0FC01EE0FFF1FE80FF91F99
S11300A0E050FF4F21E02183208322830196883290
S11300B091058CF368E270E080E091E00E94EF002B
S11300C02FEF89E698E1215080409040E1F700C08D
S11300D00000E0E0F1E011821082128281E084836A
S11300E0138215821782868310861286118683876F
S11300F0C0E005C080E091E00E94C700CF5FC83235
S1130100C8F32FEF89E698E1215080409040E1F751
S113011000C00000C0E005C086E091E00E94C70076
S1130120CF5FC832C8F32FEF89E698E121508040B1
S11301309040E1F700C0000011E0D0E0C0E005C04D
S113014083E091E00E94C700CF5FCD17C8F32FEF83
S113015089E698E1215080409040E1F700C000001A
S1130160C0E005C089E091E00E94C700CF5F2C2F5A
S113017030E088E290E08D1B91092817390794F349
S1130180D10FD83211F0D111D9CF1195D7CFFC01AD
S113019087B1816087B978B17E7F68B16160AFB79C
S11301A0F89423E030E015C0AF014F5F5F4F20812A
S11301B038E068B9000007F427FF78B9220F00007F
S11301C007F407F407F478B907F43A9591F79C011A
S11301D0FA01C9010197232B39F7AFBF0895FC0138
S11301E09B01220F331F620F731F87B1816087B990
S11301F0A8B1AE7F58B15160BFB7F89415C09F0144
S11302002F5F3F4F408168E058B9000007F447FF73
S1130210A8B9440F000007F407F407F4A8B907F4D9
S11302206A9591F7BC01F901CB010197672B39F766
S1130230BFBF87EC90E00197F1F700C0000008957C
S1070240F894FFCF5C
S9030000FC
